:020000040800F2
:10000000D00400209D010008D3100008690F0008EB
:10001000D1100008A90200085912000800000000D1
:10002000000000000000000000000000D7100008E1
:10003000AB02000800000000D5100008D91000082D
:10004000B7010008B7010008B7010008B7010008B0
:10005000B7010008B7010008B7010008B7010008A0
:10006000B7010008B7010008B7010008B701000890
:10007000B7010008B7010008B7010008B701000880
:10008000B7010008B7010008B7010008B701000870
:10009000B7010008B7010008B7010008B701000860
:1000A00081110008B7010008B7010008B511000868
:1000B000B7010008B7010008B7010008B701000840
:1000C000B7010008B7010008B7010008B701000830
:1000D000B7010008B7010008B7010008B701000820
:1000E000B7010008B7010008B7010008E9110008CE
:1000F000B7010008B701000821120008B701000885
:10010000B7010008B7010008B7010008B7010008EF
:10011000B7010008B7010008B7010008B7010008DF
:10012000B7010008B7010008B7010008B7010008CF
:10013000B7010008B7010008B7010008B7010008BF
:10014000B7010008B7010008B7010008B7010008AF
:10015000B7010008B7010008B7010008B70100089F
:10016000B7010008B7010008B7010008B70100088F
:10017000B7010008B7010008B7010008000000003F
:10018000B7010008B7010008DFF80CD000F07AF8DA
:100190000048004799120008D00400200648804714
:1001A00006480047FEE7FEE7FEE7FEE7FEE7FEE75C
:1001B000FEE7FEE7FEE7FEE771110008890100088F
:1001C0002DE9F05F0546002092469B46884606468C
:1001D000814640241BE0284641464746224600F01F
:1001E00041F853465A46C01A914110D31146184659
:1001F000224600F028F82D1A67EB01084F462246E8
:100200000120002100F01FF817EB00094E41201ECD
:10021000A4F10104DFDC484631462A464346BDE8E6
:10022000F09FD2B201E000F8012B491EFBD27047CB
:100230000022F6E710B513460A4604461946FFF7B2
:10024000F0FF204610BD202A04DB203A00FA02F11C
:10025000002070479140C2F1200320FA03F31943B4
:1002600090407047202A04DB203A21FA02F0002156
:10027000704721FA02F3D040C2F1200291400843B6
:1002800019467047064C074D06E0E06840F0010350
:1002900094E8070098471034AC42F6D3FFF778FF94
:1002A0002017000840170008FEE7704772B6FEE707
:1002B00090F82020012A07D0022A05D0416A41F493
:1002C0008021416201207047006842690A4342610F
:1002D0000020704710B590F82020012A07D0022A8C
:1002E00005D0416A41F480214162012010BD3B48A4
:1002F000D0F8002242F00102C0F80022D0F800221B
:1003000022F47C52C0F80022D0F800224B6A42EA64
:100310000322C0F800220A7D02F01F0301229A4046
:10032000D0F81C329343C0F81C32CB69B3B9D0F873
:100330000C329343C0F80C328C894B6864F31F4332
:100340004C6900EBC404C4F840320C890B6864F3B8
:100350001F434C6900EBC404C4F84432CB69012B41
:1003600016D1D0F80C321343C0F80C320C884B680D
:1003700064F31F434C6900EBC404C4F840320C8999
:10038000CB6864F31F434C6900EBC404C4F84432E7
:100390008B69002BD0F804320ED01343C0F804321E
:1003A0000B69002BD0F8143208D01343C0F8143274
:1003B000096A012904D008E09343EFE79343F5E786
:1003C000D0F81C121143C0F81C12D0F8001221F012
:1003D0000101C0F80012002010BD000000640040C0
:1003E00070B5040003D094F8200010B104E001209F
:1003F00070BD204600F082F82068016841F00101DC
:10040000016000F0F5F90546052604E000F0F0F97A
:10041000401B0A2811D820684068C007F6D0206821
:10042000016821F00201016000F0E2F905460BE0ED
:1004300000F0DEF9401B0A2806D9606A40F400305B
:10044000606284F82060D2E7206840688007EFD4BB
:10045000207E0128206801683DD021F080010160E4
:10046000607E01282068016838D021F040010160D9
:10047000A07E01282068016833D021F020010160AE
:10048000E07E0128206801682ED041F01001016053
:10049000207F01282068016829D021F0080101602F
:1004A000607F01282068016824D021F004010160E8
:1004B000D4E902010843D4E90412114308436168F6
:1004C000491E08432168C86100206062012084F849
:1004D0002000002070BD41F08001C0E741F04001E4
:1004E000C5E741F02001CAE721F01001CFE741F054
:1004F0000801D4E741F00401D9E7000010B586B047
:10050000044614216846FFF793FE18492068884284
:1005100029D117480021026842F080620260026817
:1005200002F080620592026842F000720260006888
:1005300000F0007005900E481038026842F0020288
:100540000260006800F0020005904FF440500090F7
:100550000220CDE90101032003900920049069469F
:10056000044800F047F806B010BD000000680040E5
:10057000403802400004024070B5044690F8200064
:10058000012804D0606A40F40020606218E0022074
:1005900084F820002068016821F00101016000F06A
:1005A00027F905460EE000BF00F022F9401B0A289B
:1005B00008D9606A40F400306062052084F82000A9
:1005C000012070BD20684068C007EDD1606270BD39
:1005D00070B5044600F00CF90546601C02D00448D2
:1005E0000078044400F004F9401BA042FAD370BD27
:1005F0000C0000202DE9F84FDFF8BCA100220125F6
:100600000AF1040B03264FF00F090BF1040E00BF93
:100610000B6805FA02F42340A34270D10F7907F06A
:100620000307012F01D0022F16D187684FEA420835
:1006300006FA08FC27EA0C07D1F80CC00CFA08FCF3
:100640004CEA070CC0F808C04768A7430C79C4F30C
:10065000001494403C4344600C79E443A4070AD05E
:10066000C4684FEA420C06FA0CF7BC438F6807FADD
:100670000CF72743C7600C7904F00304022C12D155
:10068000D40800EB840CDCF820405707FF0E09FA71
:1006900007F824EA0804D1F8108008FA07F848EAB5
:1006A0000408CCF8208004684FEA420C06FA0CF7E4
:1006B000BC430F7907F0030707FA0CF727430760DD
:1006C0004C6814F4403F70D03C4C276847F4804796
:1006D0002760246822F0030704F480440094384C17
:1006E00007EB040CDCF8084897074FEA177809FA7B
:1006F00008F7BC43334FB84202D1002724E054E04E
:10070000314FB84201D101271EE0304FB84201D12C
:10071000022719E02E4FB84201D1032714E02D4FD4
:10072000B84201D104270FE02B4FB84201D1052771
:100730000AE02A4FB84201D1062705E0284FB84207
:1007400001D1072700E0082707FA08F72743CCF86C
:100750000878DAF800405746D1F804C09C435FEAB5
:10076000CC3C00D51C433C60DBF800405F46D1F830
:1007700004C09C435FEA8C3C00D51C433C60DEF81F
:1007800000407746D1F804C09C435FEACC2C00D5EA
:100790001C433C60084F0C373C68D1F804C09C43B4
:1007A0005FEA8C2C00D51C433C60521C102AFFF4DD
:1007B0002FAFBDE8F88F0000003C014044380240F4
:1007C00000300140000002400004024000080240E6
:1007D000000C0240001002400014024000180240C9
:1007E000001C02400AB1816170470904FBE7000068
:1007F00001488068704700000C00002002488168B2
:1008000002781144816070470C0000200B4810B53D
:10081000016841F400710160016841F48061016088
:10082000016841F480710160032000F061F800204C
:1008300000F006F800F024F8002010BD003C024053
:1008400070B50D4D04464FF47A712878B1FBF0F085
:100850000A490968B1FBF0F000F072FB48B9102CAE
:1008600007D200222146501E00F022F800206C60C2
:1008700070BD012070BD00000C0000201800002099
:100880000A4808B5016841F480410160006800F43D
:10089000804000900548001F016841F080510160D0
:1008A000006800F08050009008BD0000443802400D
:1008B000F0B40E4B1B680C46C3F30223C3F10705CB
:1008C000042D00D90425191D072901D2002300E0B9
:1008D000DB1E012606FA05F1491E214099409E4083
:1008E000761E16403143F0BC00F0B7BC0CED00E0C2
:1008F000064900F0070208684FF6FF03184040EA77
:100900000220034A10430860704700000CED00E02D
:100910000000FA052DE9F0470E46050065D0DFF826
:100920001481D8F80000F7B200F00700B04207D2F7
:1009300088F80070D8F8000000F00700B04254D1E9
:1009400028683D4C810712D5400703D5206840F444
:10095000E05020602878000703D5206840F460400C
:1009600020602068A96820F0F00008432060287803
:10097000C0072DD0304968680839012812D00228F4
:1009800013D0032811D00968890700292DDA2168BE
:1009900021F0030101432160FFF72AFF814641F264
:1009A000883A0EE009688903EFE709688901ECE7F6
:1009B000FFF71EFFA0EB0901514502D90320BDE856
:1009C000F0872068696800F00C00B0EB810FEFD170
:1009D000D8F80010404601F00701B14207D907706E
:1009E000006800F00700B04201D00120E7E7287856
:1009F000400705D52068E96820F4E05008432060EE
:100A00002878000706D52068296920F4604040EA6C
:100A1000C100206000F018F82168084AC1F30311F2
:100A2000515CC8400649086006480068FFF708FFA7
:100A30000020C4E7003C02400838024010170008BC
:100A40001800002010000020154810B5006810F0B4
:100A50000C02144813D01449042A0FD0082A0ED1CE
:100A60000F4C241F2268236802F03F025B0207D567
:100A70002068C0F38810A0FB010106E0084610BD05
:100A80002168C1F38811A1FB00010023FFF798FB47
:100A90002168C1F30141491C4900B0FBF1F010BDD0
:100AA000083802400024F40040787D012DE9F84F19
:100AB00004006ED02078DFF84C93C007A9F104053C
:100AC0004AD009F104000168C1F38101012908D06D
:100AD0000068C0F3810002280AD1D9F80000400262
:100AE00006D52868800337D560680028E1D033E058
:100AF0006068B0F5803F10D0B0F5A02F286810D006
:100B000020F480302860286820F480202860606805
:100B1000A8B1FFF76DFE06460DE0286840F480306E
:100B2000F4E740F480202860F7E700BFFFF760FE9D
:100B3000801B642873D828688003F7D50CE0FFF782
:100B400057FE064605E000BFFFF752FE801B6428F3
:100B5000F0D828688003F7D42078DFF8AC828007CB
:100B60004FF0000A3ED5A748001D016811F00C0F98
:100B700008D00068C0F3810002280BD1D9F800002A
:100B8000400207D42868800716D5E068012800D104
:100B900012E033E1E068B8B10120C8F80000FFF7C7
:100BA00027FE064605E000BFFFF722FE801B022855
:100BB000C0D828688007F7D52868216920F0F80098
:100BC00040EAC10028600DE0C8F800A0FFF710FE61
:100BD000064604E0FFF70CFE801B02281FD8286899
:100BE0008007F7D42078000722D5864F87486169AF
:100BF000703771B101210160FFF7FAFD064604E08C
:100C0000FFF7F6FD801B022809D838688007F7D562
:100C10000EE0C0F800A0FFF7EBFD064605E082E01D
:100C2000FFF7E6FD801B02287DD838688007F7D4DF
:100C30002078400768D5DFF8CCB100270BF13C0BDA
:100C4000DBF80000C0000BD4DBF8001041F080514D
:100C5000CBF80010DBF80000012700F08050009076
:100C60006B4E3068C00510D4306840F4807030603E
:100C7000FFF7BEFD009005E0FFF7BAFD0099401AAE
:100C8000022850D83068C005F6D55E4EA0686C3694
:100C900001280FD00528306810D020F00100306006
:100CA000306820F004003060A068B8B1FFF7A0FD04
:100CB00000900FE0306840F00100F4E740F00400DD
:100CC0003060F7E7FFF794FD0099411A41F2883050
:100CD000814266D830688007F4D50EE0FFF788FDC2
:100CE000009007E0FFF784FD0099411A41F2883037
:100CF000814256D830688007F4D42FB1DBF8001059
:100D000021F08051CBF80010A069C8B33D49091DFE
:100D10000968C1F3810102294AD00228504607D050
:100D2000C8F8600000E03CE0FFF762FD04463BE0ED
:100D30004746C8F86000FFF75BFD064605E000BFC8
:100D4000FFF756FD801B02282BD828688001F7D4B6
:100D5000D4E907010843A16A2E4A490802EB014180
:100D6000626A41EA8211084394F82C1040EA01615A
:100D7000C9F8001001203866FFF73AFD044606E086
:100D80003EE000BFFFF734FD001B022809D82868A9
:100D90008001F7D534E000BFFFF72AFD001B0228D1
:100DA00002D90320BDE8F88F28688001F4D427E039
:100DB0000128F7D0D9F80000E26900F480019142DF
:100DC0001CD1226A00F03F01914217D147F6C07151
:100DD000626A0140B1EB821F10D1A26A4FF0FF336B
:100DE00000F4403103EB5202B1EB024F06D194F80C
:100DF0002C1000F07060B0EB016F01D00120D1E742
:100E00000020CFE70438024000004742800E4742EE
:100E1000007000400000FFFF70B5040009D0606A58
:100E2000002540B125616561A56294F8510040B18B
:100E30000CE0012070BD6068B0F5827FF4D0E56100
:100E4000F2E784F85050204600F044F8022084F87D
:100E500051002068016821F040010160A0882189CB
:100E600000F4827001F404410843A18901F4006197
:100E70000843217C01F002010843217D01F00101BA
:100E80000843218B01F400710843217F01F03801F0
:100E9000084394F8201001F080010843218D01F4EB
:100EA0000051084321680860A069042101EA10404C
:100EB00094F8241001F0100108432168486020686C
:100EC000C16921F40061C1616565012084F85100A8
:100ED000002070BD10B586B0044614216846FFF7A7
:100EE000A7F914492068884221D1134800210268DB
:100EF00042F400420260006800F4004005900E4891
:100F00001038026842F004020260006800F0040039
:100F100005904FF4406000900220CDE901010320CC
:100F200003900620049069460448FFF763FB06B06F
:100F300010BD0000003C0040403802400008024064
:100F400010B5401EB0F1807F01D3012010BD4FF0DD
:100F5000E02460610F21601700F07FF90020A0619C
:100F600007202061002010BDFEE7000010B51948E1
:100F70008AB01749016004210024C0E901148905E1
:100F8000C1604FF4702101614FF44011416104765A
:100F900044768476C47604774477FFF721FA08B163
:100FA000FFF784F90E20CDE9050401200294039493
:100FB0000790089000940194694604940548FFF74F
:100FC00089F9002801D0FFF771F90AB010BD0000BF
:100FD000006800404C0000202DE9F04186B014214B
:100FE0006846FFF725F923480024016841F0100105
:100FF0000160016801F010010591016841F00401F0
:101000000160016801F004010591016841F00101EE
:101010000160016801F001010591016841F00201E0
:1010200001600068144F00F002000590002240218A
:101030003846FFF7D7FBDFF844804FF460460022C4
:1010400031464046FFF7CEFB402000900125CDE918
:101050000154694638460394FFF7CCFA0096CDE96F
:101060000154694640460394FFF7C4FA06B0BDE850
:10107000F0810000303802400010024000080240B9
:10108000124810B5104901604FF4827141604FF46D
:10109000806181604900C1600221016100214FF43B
:1010A0000072C0E905123822C0E90721416281625D
:1010B0000A21C162FFF7B0FE002803D0BDE810404E
:1010C000FFF7F4B810BD0000003C004074000020A1
:1010D000FEE7FEE770477047FFF790BB30B593B06F
:1010E00030216846FFF7A4F814210CA8FFF7A0F8F8
:1010F0001D480025016841F080510160006800F042
:10110000805011901948016841F4804101600068E5
:10111000022400F4804011900120039010200490DC
:10112000009406940820CDE90750A820CDE90904D1
:1011300004200B906846FFF7B9FC08B172B6FEE7D1
:101140000CA90F2081E831004FF4A0500F904FF40C
:101150008050109005210CA8FFF7DCFB002801D07F
:1011600072B6FEE713B030BD403802400070004058
:101170000248016841F470010160704788ED00E0A9
:101180000A49086980070FD50948438B028B9342AF
:1011900003D14FF6FF70486302E0037F1A440283D5
:1011A000086920F00200086170470000004001401B
:1011B0001C0000200A49086980070FD509484388A8
:1011C0000288934203D14FF6FF70486302E003792F
:1011D0001A440280086920F002000861704700008C
:1011E000000001401C0000200B490868800712D550
:1011F0000A48C38C828C934205D1074A4FF6FF7090
:101200002432106003E090F828301A448284086881
:1012100020F0020008607047101800401C000020F9
:101220000B490868800711D50A48C389828993420F
:1012300005D1074A4FF6FF702432106002E0037CAC
:101240001A448281086820F002000860704700009C
:10125000100401401C000020FEE70907090E0028C9
:1012600004DB00F1E02080F80014704700F00F006C
:1012700000F1E02080F8141D704702E008C8121F3A
:1012800008C1002AFAD170477047002001E001C16F
:10129000121F002AFBD170470026FFF7B7FA00F0B3
:1012A00063F900F0ADF900F0F9F900F015F9FFF776
:1012B00015FFFFF791FEFFF759FEFFF7E1FE1D4C0A
:1012C00000224FF4006500BF06EB460104EB8100ED
:1012D000761C8272058124F821504580F6B2C580C3
:1012E000042EF1D31448FFF747F902211248FEF704
:1012F000DFFFDFF848804FF48066012788F8007030
:101300006680E6816683E6845FF0000000EB4001C2
:1013100004EB8101C988A1F58061A94200D9FEE7EB
:10132000401CC0B20428F1D300F00AF86420FFF793
:101330004FF9E3E71C0000204C00002000000020D3
:101340002DE9FC4F5B495C4A08895043C21700EB0A
:101350001250C0F30F364E80888A574A5043C21746
:1013600000EB1250C0F30F35CD81088C524A504328
:10137000C21700EB1250C0F30F344C83888D4E4AD5
:101380005043C21700EB1250C0F30F33CB840888D0
:101390008146301A00D5404282B288898646281A92
:1013A00000D5404287B2088B0190201A00D54042F8
:1013B0001FFA80FC888C00908B46181A00D540429A
:1013C00081B21046BA4200D23846604500D260462B
:1013D000884200D208464FF0960800FB08F8B8FB98
:1013E000F2F23648C262B8FBF7F2354F3A60B8FB0A
:1013F000FCF7DFF8D0A0CAF82C70B8FBF1F1324A44
:101400001160C8460127314932224FF0FF0C4FF6D8
:10141000FF79464504D90F6042638BF8047009E0F8
:1014200006D242638BF804C04FF48030086001E0BC
:10143000C0F83490264E5846754505D94FF400350E
:101440000D603260077409E006D232604FF0020589
:101450000D6080F810C001E0C6F80090019DAC421C
:1014600006D94FF480240C60CAF8342007770AE0CC
:1014700007D2CAF834204FF004040C6080F81CC076
:1014800001E0CAF83490009D124CAB4207D94FF0EE
:1014900008030B6022608BF82870BDE8FC8F06D231
:1014A00022604FF400220A608BF828C0F5E7C4F8E8
:1014B0000090F2E71C000020E0A5010000000140C0
:1014C0002C040140004001402C1800401808024044
:1014D00034040140341800402048016841F0020102
:1014E00001601F48016841F000510160001D016862
:1014F00041F4804101601A494FF0106024310860C6
:1015000016481030016841F0400101601548002183
:101510000160144A96210C321160121F40F2A3118F
:101520001160104908390A6842F060020A600168D7
:1015300041F0010101600B481438016841F00201DB
:10154000016008482038016841F001010160054947
:101550004FF6FF70143108607047000030380240C9
:1015600000040240201800402148016841F00401B5
:10157000016020490A6842F055020A60091D0A68A4
:1015800042F00F020A60016841F0100101601A4840
:10159000016841F400210160416841F4007141603B
:1015A0001021416212481430016841F001010160CC
:1015B0001248002101629621C16240F2A3118162AA
:1015C000416C41F400414164816941F060018161F5
:1015D000016A41F001010162016841F0010101600D
:1015E000C16841F00201C1604FF6FF71416370476D
:1015F0003038024000080240001002400000014064
:101600002348016841F0040101602248016841F467
:1016100000510160001D016841F0400101601D4959
:101620004FF040702031086019481430016841F0D3
:1016300002010160184800210160174A96210C320E
:101640001160121F40F2A3111160134924310A687E
:1016500042F400420A60104908390A6842F0600208
:101660000A60016841F0010101600B4820380168FF
:1016700041F00101016008481438016841F002019D
:10168000016005494FF6FF70143108607047000093
:101690003038024000080240200401401948016827
:1016A00041F0100101601848016841F400610160D7
:1016B000416841F0200141604FF44011016211483E
:1016C0001430016841F4803101601048002101624A
:1016D0009621C16240F2A3118162816941F06001EB
:1016E0008161016A41F001010162C16841F00201BA
:1016F000C160016841F0010101604FF6FF71416373
:1017000070470000303802400010024000400140A5
:1017100000000000000000000102030406070809A1
:1017200040170008000000201C0000007A1200088A
:101730005C1700081C000020B40400008A12000896
:101740000000000000000000000000000100000098
:0C17500010000000000000000024F40065
:040000050800018965
:00000001FF
